:100000000C9406010C9437010C9437010C943701C1
:100010000C9437010C9437010C9437010C94370180
:100020000C9437010C9437010C9437010C94370170
:100030000C9437010C9437010C9437010C94370160
:100040000C9437010C9437010C9437010C94370150
:100050000C9437010C9437010C9437010C94A308CD
:100060000C9437010C94410B0C94150C0C94370133
:100070000C9437010C9437010C9437010C94370120
:100080000C9437010C9437010C9437010C94370110
:100090000C946E0B0C94600C0C9437010C94790644
:1000A0000C9437010C9437010C9437010C943701F0
:1000B0000C9437010C9437010C9437010C943701E0
:1000C0000C9437010C9437010C9437010C949B0B62
:1000D0000C94AB0C0C9437010C94C80B0C94F60CDC
:1000E0000C94370100002100240027002A002D0075
:1000F0003000330001010000040107010A01000083
:100100002200250028002B002E00310034000201BF
:100110000000050108010B0100002000230026005B
:1001200029002C002F00320000010000030106010D
:10013000090105050505070508080808020202026D
:100140000A0A080804040404010101010101010173
:100150000303030303030303040707070C0C0C0C3E
:100160000C0C0C0C02020202060606060606060627
:100170000B0B0B0B0B0B0B0B0102102020080810B4
:100180002040102040800201020108040201010207
:1001900004081020408080402010080402018004E0
:1001A000020180402010080402010804020101023B
:1001B0000408102040800102040810204080000044
:1001C000090A02080B0C0D070603040100000000D9
:1001D000000000000000000000000000000000001F
:1001E0000000000000000000000011100F000000DF
:1001F00000000000000000000000000000000000FF
:1002000000000000B302C905BF0DB80211241FBED3
:10021000CFEFD1E2DEBFCDBF00E00CBF12E0A0E027
:10022000B2E0E4E5F0E200E00BBF02C007900D92FF
:10023000AE3EB107D9F717E0AEEEB2E001C01D92B5
:10024000A131B107E1F712E0CAE0D2E000E006C058
:1002500022970109FE010BBF0E94E10EC430D107B5
:1002600080E00807A9F70E949A090C9418100C94D2
:100270000000009711F00E94040A8DE061E00E94E6
:1002800047088DE061E00E946B086AEF70E080E053
:1002900090E00E9411098DE060E00E946B086AEF17
:1002A00070E080E090E00E941109EBCF8130910571
:1002B00029F48EEE92E00E94BD020895009721F489
:1002C0008EEE92E00E944E0308951F93CF93DF932A
:1002D000282F162FC0EFD3E0CE01622F0E94A70572
:1002E000CE0162E00E945505CE01612F0E945505A6
:1002F000CE010E94B405DF91CF911F910895CF9355
:10030000DF93BC01C0EFD3E0CE010E94B105CE0166
:1003100062E00E945505CE0168E00E945505CE01BD
:1003200061E00E945505CE010E94B405DF91CF9196
:1003300008951F93CF93DF93682F70E06F5F7F4F17
:1003400080EF93E00E94B10580EF93E062E00E94AD
:10035000550580EF93E062E00E94550510E0C8E388
:10036000D0E08EEE92E06091A0030E94EC0280FD4E
:1003700026C080EF93E06091A0030E945505809114
:10038000A0039091A103FC01EE0FFF1FE80FF91FDE
:10039000E151FD4F618180EF93E00E94550580910E
:1003A000A0039091A103FC01EE0FFF1FE80FF91FBE
:1003B000E251FD4F80EF93E061810E9455058091ED
:1003C000A0039091A1030196BE010E94980E909304
:1003D000A1038093A003009731F480EF93E00E9483
:1003E000B40580E009C01F5F1A3009F0BACF80EF72
:1003F00093E00E94B40581E0DF91CF911F910895B1
:10040000EF92FF920F931F93CF93DF93EC018C81B8
:100410009D81009731F48881998161E372E00E94A7
:100420003901EC81FD81E080F18002811381CF01EF
:100430000E94950E1D830C832A813B812150304000
:100440003B832A83C701DF91CF911F910F91FF90CA
:10045000EF900895AF92BF92CF92DF92EF92FF920A
:100460000F931F93DF93CF930F920F92CDB7DEB709
:10047000682F70E082EB90E0689F7001699FF00C3C
:10048000789FF00C11245EEEC52E52E0D52ECE0CD6
:10049000DF1C860102551F4FF80180819181009772
:1004A00009F454C06F5F7F4F80EF93E00E94B10565
:1004B00022E0A601DC2CC52E5801870108561C4FEE
:1004C00023C08D2D9C2D6E2D2A830E94E102E82EE3
:1004D000692F80EF93E00E94550580EF93E06E2D29
:1004E0000E9455052A812C5F0FC0313069F48D2D93
:1004F0009C2D6E2D2A830E94EC02682F80EF93E0E2
:100500000E9455052A812D5FF501408151814115D9
:100510005105C1F02E31B0F4C8012A830E940002B7
:10052000E82E392F80EF93E0632F39830E94550521
:1005300080EF93E06E2D0E94550539812A8132307B
:10054000A1F6BFCF80EF93E00E94B4050F900F900B
:10055000CF91DF911F910F91FF90EF90DF90CF909F
:10056000BF90AF90089581E090E00E9456010895F9
:1005700080E090E00E9456010895FC01E455FF4F91
:1005800011821082FC01E255FF4F11821082FC01A2
:10059000E055FF4F11821082FC01E655FF4F11829A
:1005A000108228EAFC0111922A95E9F7FC01E8552E
:1005B000FF4F108287559F4F27E0FC01208308954D
:1005C000089570E0FB01EE0FFF1FE60FF71FE80F25
:1005D000F91F81819281089570E0FB01EE0FFF1FEA
:1005E000E60FF71FE80FF91F8081089570E0FB0107
:1005F000EE0FFF1FE60FF71FE80FF91F528341832D
:10060000089508959C01862FF901E755FF4F9081C9
:10061000913089F0913048F0923019F09430F1F433
:1006200014C093E0908366E00DC097E0908390E063
:100630000E947F01089543E0408328553F4FF90110
:10064000908369E00E946501089595E090832855A4
:100650003F4FF901108290E00E947F0108950F93AF
:100660001F93CF93DF93EC010C811D8109C08C8116
:100670009D81FC01028113810E94950E1D830C83D4
:1006800001151105A1F71B821A821F821E82198291
:100690001882DF91CF911F910F91089586559F4F3A
:1006A0000E942F030895CF92DF92EF92FF920F9353
:1006B0001F93DF93CF930F92CDB7DEB780EF93E018
:1006C0000E94CA04182F833079F4809196038823FE
:1006D00009F4E6C081E996E063E672E00E94E4096D
:1006E00081E08093A203E9C0823031F581E996E090
:1006F00069E672E00E94E40980EF93E00E94C10481
:10070000009709F4DAC080EF93E00E94CA04682FD2
:1007100080EF93E069830E94CA04182F00E080EF05
:1007200093E00E94CA04A801480F591F8EEE92E080
:1007300069810E94F602C1C0813021F581E996E00D
:100740006FE672E00E94E40916C080EF93E00E9419
:10075000CA04182F80EF93E00E94CA04482F8EEE3F
:1007600092E0612F0E94010381E996E0612F4AE047
:1007700050E00E94800A80EF93E00E94C10400973D
:1007800021F79BC08430D9F581E996E067E772E0F4
:100790000E94E4092DC080EF93E00E94CA04182F44
:1007A00080EF93E00E94CA04682F1230A1F480EF1A
:1007B00093E069830E94CA04D82ECC2480EF93E092
:1007C0000E94CA04A601480F591F8EEE92E069816B
:1007D0000E94F6020DC0113059F480EF93E0698356
:1007E0000E94CA04482F8EEE92E069810E940103A4
:1007F00080EF93E00E94C104009769F65EC08530E7
:1008000069F480919603882309F44AC081E996E04F
:100810006DE772E00E94E40982E036C0873061F43F
:1008200081E996E064E872E00E94E409E091A403A3
:10083000F091A503199541C0893041F481E996E012
:100840006CE872E00E94E40981E01EC0883041F546
:1008500081E996E063E972E00E94E4091092960350
:1008600080EF93E00E94C104009739F180EF93E09C
:100870000E94CA048230910554F081E996E06CE947
:1008800072E00E94E40984E08093970316C081E936
:1008900096E06AEA72E00E94E409109297030DC0A4
:1008A00081E996E069EB72E00E94E40981E996E053
:1008B000612F4AE050E00E94800A0F90CF91DF91B3
:1008C0001F910F91FF90EF90DF90CF900895CF93FD
:1008D000DF93C0EFD3E0CE0162E070E00E94A40598
:1008E000CE0163E573E00E94C405DF91CF910895C6
:1008F00081E996E040E05BE460E070E00E94410D39
:100900000E94670468EE73E080E090E00E941109A5
:1009100008958EEE92E061E00E94020380919703B9
:10092000853059F481E996E061EC72E00E94E409B7
:1009300060E67AEE8FEF9FEF06C0873039F464E609
:1009400070E080E090E00E94110908958091A20378
:10095000882329F080E00E9499018093A20380916E
:10096000A3038F5F8093A303843630F08EEE92E072
:100970000E94E0021092A30380E00E942A0200007D
:1009800008952091C70330E08091C603281B3109E8
:10099000C90108958091C6039091C703891750F447
:1009A000E82FF0E0EA55FC4F208130E08F5F809324
:1009B000C60302C02FEF3FEFC9010895E091C603BF
:1009C0008091C703E81730F4F0E0EA55FC4F20812E
:1009D00030E002C02FEF3FEFC90108950895CF9393
:1009E000DF939C01CB01E091EE03F091EF03309790
:1009F000D9F05091C6034091C7035417A8F060E0A6
:100A000009C0DA01AA55BC4F420F531FEA014881C1
:100A10004C936F5F462F50E04817590794F310929C
:100A2000C6038093C7031995DF91CF910895E09194
:100A3000EC03F091ED03309729F01092E903109246
:100A4000EA0319950895CF92DF92EF92FF920F93E8
:100A50001F93CF93DF936C01CB01EA012091EB034D
:100A60002223B1F0E62EF92E00E010E00DC0D701F0
:100A70006D917D01D601ED91FC910190F081E02D09
:100A8000C60119950F5F1F4F0C171D0780F303C098
:100A9000642F0E943D06CE01DF91CF911F910F91EF
:100AA000FF90EF90DF90CF900895DF93CF930F9258
:100AB000CDB7DEB769832091EB032223D1F02091DB
:100AC000EA03203240F021E030E0FC01338322834E
:100AD00020E030E015C08091E903E82FF0E0E75313
:100AE000FC4F998190838F5F8093E9038093EA03A1
:100AF00005C0CE01019661E00E943D0621E030E094
:100B0000C9010F90CF91DF9108951092C603109202
:100B1000C7031092E9031092EA030E94E0050895CA
:100B2000CF93DF93EC01862F0E94F90587E195E0D2
:100B30000E945C068FEE94E00E945706CE010E9450
:100B40008505DF91CF9108950E949005089581E079
:100B50008093EB036093C8031092E9031092EA03B9
:100B600008950E94A70508958091C80369EC73E079
:100B70004091EA0321E00E94FD051092E9031092E2
:100B8000EA031092EB0308957093EF036093EE0372
:100B900008951092F3031092F20388EE93E0A0E020
:100BA000B0E08093F4039093F503A093F603B09321
:100BB000F70381ED92E09093F1038093F0030895A1
:100BC0001092200484E161E00E946B0885E161E0FD
:100BD0000E946B08E9EBF0E080818E7F808380814A
:100BE0008D7F808388E48093B80085E48093BC0087
:100BF0000895880F8093BA0008954132B0F590911E
:100C000020049923E1F792E0909320049FEF9093C2
:100C10001F041092FD034093FE03DB01EFEFF3E0AE
:100C200050E04E0F5F1F02C09D919193E417F507AE
:100C3000D9F790E0880F991F8093FC0385EE80938D
:100C4000BC00222321F0809120048230E1F38091C6
:100C50001F048F3F61F080911F04803251F080911A
:100C60001F04803341F483E0089581E0089580E01B
:100C7000089582E0089584E008956132A0F42091FF
:100C80002004243091F460934504DC01E8E4F4E0AE
:100C900070E06E0F7F1F02C08D918193E617F707FA
:100CA000D9F780E0089581E0089582E00895909357
:100CB000430480934204089590934704809346042C
:100CC0000895882311F085EC01C085E88093BC006D
:100CD000089585ED8093BC008091BC0084FDFCCF1D
:100CE00010922004089585EC8093BC00109220049B
:100CF00008951F920F920FB60F920BB60F92112408
:100D00002F933F934F935F936F937F938F939F9313
:100D1000AF93BF93EF93FF938091B90090E0887FEA
:100D200090708036910509F4C2C081369105E4F5D2
:100D30008832910509F47EC089329105C4F480316E
:100D4000910509F472C08131910544F4009709F4CA
:100D500013C18830910509F013C167C0883191052E
:100D600009F468C08032910509F00AC178C0803466
:100D7000910509F48AC0813491054CF480339105C2
:100D800009F46FC08833910509F0FAC06EC0803550
:100D9000910509F46EC08835910509F47BC088344B
:100DA000910509F0EDC0EAC08839910509F4DAC06F
:100DB00089399105ECF48837910509F478C08937B1
:100DC00091054CF48836910509F471C0803791057E
:100DD00009F0D6C06CC08838910509F4C3C08039C9
:100DE000910509F46AC08038910509F0C9C065C051
:100DF000803B910509F48EC0813B91054CF4803A0B
:100E0000910509F46CC0883A910509F0B9C082C017
:100E1000803C910509F4AAC0883C910509F4A6C05C
:100E2000883B910509F0ACC08AC08091FC03809397
:100E3000BB0013C09091FD038091FE03981708F04A
:100E40009DC08091FD03E82FF0E0E150FC4F9081C0
:100E50009093BB008F5F8093FD0381E084C080E2AC
:100E600001C080E380931F0489C088E380931F043E
:100E70004EC08091FD039091BB00E82FF0E0E1505F
:100E8000FC4F90838F5F8093FD039091FD038091D1
:100E9000FE0365C08091FD039091BB00E82FF0E058
:100EA000E150FC4F90838F5F8093FD0367C083E028
:100EB0008093200410922104D0CF809121048032AD
:100EC00008F050C0809121049091BB00E82FF0E021
:100ED000EE5DFB4F90838F5F80932104BECF8091A6
:100EE0002104803230F4E0912104F0E0EE5DFB4F0C
:100EF00010820E94690660912104E0914204F09101
:100F0000430482E294E070E01995109221040E945B
:100F1000730636C084E0809320041092440410923B
:100F20004504E0914604F0914704199580914504E9
:100F3000882329F481E0809345041092480480912D
:100F40004404E82FF0E0E85BFB4F90819093BB00F6
:100F50008F5F8093440490914404809145049817D6
:100F600008F47BCF80E00E9461060AC081E00E9405
:100F700061061092200404C010921F040E946906AA
:100F8000FF91EF91BF91AF919F918F917F916F9161
:100F90005F914F913F912F910F900BBE0F900FBE1D
:100FA0000F901F901895893009F449C08A30A0F439
:100FB000843051F1853040F4823079F1833000F58E
:100FC000813009F063C026C0873079F1883098F508
:100FD000863009F05BC025C08D3009F442C08E30E8
:100FE00028F48B30B1F18C30C0F52DC0803109F47C
:100FF00042C0813109F445C08F3009F047C037C085
:10100000809180008F7703C0809180008F7D8093D6
:101010008000089584B58F7702C084B58F7D84BD2C
:1010200008958091B0008F7703C08091B0008F7DCC
:101030008093B0000895809190008F7707C08091D1
:1010400090008F7D03C080919000877F80939000F7
:1010500008958091A0008F7707C08091A0008F7DB8
:1010600003C08091A000877F8093A00008958091A5
:1010700020018F7703C0809120018F7D8093200114
:10108000089580912001877F80932001089590E04A
:10109000FC01E858FE4F2491FC01EE5CFE4FE49108
:1010A000EE23C1F0F0E0EE0FFF1FEC51FF4F8591F2
:1010B0009491DC01662341F49FB7F8948C912095BC
:1010C00082238C939FBF08959FB7F8948C91822BB5
:1010D0008C939FBF08950F931F93DF93CF930F922D
:1010E000CDB7DEB7282F30E0F901E254FE4F8491EE
:1010F000F901E858FE4F14912E5C3E4FF90104911E
:101100000023D9F0882321F069830E94D3076981E5
:10111000E02FF0E0EE0FFF1FE250FF4F859194911A
:10112000DC019FB7F894662321F48C9110958123FC
:1011300002C08C91812B8C939FBF0F90CF91DF9138
:101140001F910F9108951F920F920FB60F921124C5
:101150002F933F938F939F93AF93BF9380916C0492
:1011600090916D04A0916E04B0916F043091700461
:101170000196A11DB11D232F2D5F2D3720F02D5776
:101180000196A11DB11D2093700480936C0490936F
:101190006D04A0936E04B0936F04809168049091E5
:1011A0006904A0916A04B0916B040196A11DB11D60
:1011B0008093680490936904A0936A04B0936B04CD
:1011C000BF91AF919F918F913F912F910F900FBE43
:1011D0000F901F9018959FB7F89420916804309154
:1011E000690440916A0450916B0486B5A89B06C0BF
:1011F0008F3F21F02F5F3F4F4F4F5F4F9FBF542FC7
:10120000432F322F2227280F311D411D511D82E00F
:10121000220F331F441F551F8A95D1F7B901CA0108
:101220000895EF92FF920F931F93CF93DF937B016B
:101230008C010E94EB08EB010FC00E94EB086C1BB5
:101240007D0B83E0683E780738F00894E108F108E8
:1012500001091109C851DC4FE114F1040105110520
:1012600061F7DF91CF911F910F91FF90EF9008955B
:10127000789484B5826084BD84B5816084BD85B571
:10128000826085BD85B5816085BDEEE6F0E0808138
:1012900081608083E1E8F0E0108280818260808359
:1012A000808181608083E0E8F0E0808181608083DC
:1012B000E1EBF0E0808184608083E0EBF0E080810E
:1012C00081608083E1E9F0E08081826080838081B9
:1012D00081608083E0E9F0E0808181608083E1EAE1
:1012E000F0E0808182608083808181608083E0EA99
:1012F000F0E0808181608083E1E2F1E080818260C2
:101300008083808181608083E0E2F1E08081816080
:101310008083EAE7F0E0808184608083808182605E
:101320008083808181608083808180688083109247
:10133000C1000895CF93DF930E9438090E9478047A
:10134000C4EFDBE00E9489042097E1F30E94F40BD4
:10135000F9CFCF92DF92EF92FF920F931F93CF932B
:10136000DF936C017B018A01C0E0D0E00FC0D701A0
:101370006D917D01D601ED91FC910190F081E02D00
:10138000C6011995C80FD91F01501040011511054C
:1013900071F7CE01DF91CF911F910F91FF90EF90E8
:1013A000DF90CF900895DB010D900020E9F7AD01AB
:1013B00041505040461B570BDC01ED91FC910280DF
:1013C000F381E02D199508950E94D3090895DC0159
:1013D000ED91FC910190F081E02D199508950F9306
:1013E0001F93CF93DF93EC016DE00E94E7098C011E
:1013F000CE016AE00E94E709080F191FC801DF91BA
:10140000CF911F910F9108950F931F93CF93DF9367
:10141000EC010E94D3098C01CE010E94EF09080F54
:10142000191FC801DF91CF911F910F9108958F92DD
:101430009F92AF92BF92CF92DF92EF92FF920F9363
:101440001F93DF93CF93CDB7DEB7A1970FB6F89474
:10145000DEBF0FBECDBF6C01042FE52FCB01122FD5
:1014600019A2223008F41AE021E2E22EF12CEC0E4F
:10147000FD1E812E9924AA24BB2403C0022FE32F32
:10148000CA01602F7E2FA50194010E94AB0E129F0E
:10149000802D1124081B0894E108F1080A3014F487
:1014A000005D01C0095CF70100832115310541058C
:1014B000510521F7C601B7010E94D309A1960FB6C5
:1014C000F894DEBF0FBECDBFCF91DF911F910F917A
:1014D000FF90EF90DF90CF90BF90AF909F908F9054
:1014E00008952115310549F4DC01ED91FC9101903D
:1014F000F081E02D642F199508950E94170A089530
:101500009A01462F50E060E070E00E94710A089551
:10151000FC0184859585FC01E05CFF4F20813181D1
:101520008E5B9F4FFC0180819181281B390B2F73AB
:101530003070C9010895FC0184859585FC01E05C4B
:10154000FF4F40815181FC01EE5BFF4F20813181D3
:101550004217530741F00190F081E02DE80FF91F89
:10156000208130E002C02FEF3FEFC9010895FC0158
:1015700084859585FC01E05CFF4F40815181FC0131
:10158000EE5BFF4F208131814217530771F0A0813C
:10159000B181A80FB91F2C918081918101968F7321
:1015A00090709183808330E002C02FEF3FEFC9013C
:1015B0000895DC011E968D919C911F97FC01E05CC3
:1015C000FF4F8E5B9F4F40815181DC012D913C91FB
:1015D000119742175307B9F708951F93FC01162F6F
:1015E00026853785D901A05CBF4F8D919C910196CE
:1015F00060E470E00E94980ED901AE5BBF4F4D9140
:101600005C91119784179507D1F3D901A05CBF4F66
:101610000D90BC91A02DA20FB31F1C93A685B7857A
:10162000A05CBF4F11969C938E93A689B7892C918D
:1016300081E090E0058C02C0880F991F0A94E2F7C0
:10164000282B2C9381E090E01F910895FB01E05C32
:10165000FF4F208131812F5F3F4F2F733070DB01AF
:10166000AE5BBF4F4D915C9111972417350739F050
:10167000A081B181A60FB71F8C9331832083089579
:1016800008951F920F920FB60F920BB60F9211246E
:101690002F933F934F935F936F937F938F939F937A
:1016A000AF93BF93EF93FF938091C60061E774E01F
:1016B0000E94260BFF91EF91BF91AF919F918F9167
:1016C0007F916F915F914F913F912F910F900BBE42
:1016D0000F900FBE0F901F90189508951F920F92B4
:1016E0000FB60F920BB60F9211242F933F934F9387
:1016F0005F936F937F938F939F93AF93BF93EF937A
:10170000FF938091CE0069EF74E00E94260BFF9159
:10171000EF91BF91AF919F918F917F916F915F9169
:101720004F913F912F910F900BBE0F900FBE0F90D6
:101730001F90189508951F920F920FB60F920BB637
:101740000F9211242F933F934F935F936F937F9347
:101750008F939F93AF93BF93EF93FF938091D600A6
:1017600061E875E00E94260BFF91EF91BF91AF9168
:101770009F918F917F916F915F914F913F912F91A9
:101780000F900BBE0F900FBE0F901F9018950895ED
:101790001F920F920FB60F920BB60F9211242F9338
:1017A0003F934F935F936F937F938F939F93AF93E9
:1017B000BF93EF93FF938091360169E076E00E943A
:1017C000260BFF91EF91BF91AF919F918F917F91E8
:1017D0006F915F914F913F912F910F900BBE0F90A2
:1017E0000FBE0F901F90189581E996E00E94880A1D
:1017F000009711F00E94400B80EB96E00E94880A4F
:10180000009711F00E946D0B8FEC96E00E94880A01
:10181000009711F00E949A0B8EEE96E00E94880AC3
:10182000009711F00E94C70B08951F920F920FB6F8
:101830000F920BB60F9211242F933F935F936F93E8
:101840007F938F939F93AF93BF93EF93FF932091D9
:10185000F5043091F6048091F7049091F80428176C
:10186000390731F48091C1008F7D8093C10016C08B
:10187000E091F704F091F804EB54FB4F2081809144
:10188000F7049091F804019660E470E00E94980ECD
:101890009093F8048093F7042093C600FF91EF9192
:1018A000BF91AF919F918F917F916F915F913F9188
:1018B0002F910F900BBE0F900FBE0F901F90189599
:1018C0001F920F920FB60F920BB60F9211242F9307
:1018D0003F935F936F937F938F939F93AF93BF9348
:1018E000EF93FF9320917D0530917E0580917F05D8
:1018F000909180052817390731F48091C9008F7DB8
:101900008093C90016C0E0917F05F0918005E35CEB
:10191000FA4F208180917F0590918005019660E4C7
:1019200070E00E94980E9093800580937F0520932D
:10193000CE00FF91EF91BF91AF919F918F917F91D9
:101940006F915F913F912F910F900BBE0F900FBE43
:101950000F901F9018951F920F920FB60F920BB613
:101960000F9211242F933F935F936F937F938F93E5
:101970009F93AF93BF93EF93FF9320910506309110
:10198000060680910706909108062817390731F45A
:101990008091D1008F7D8093D10016C0E091070621
:1019A000F0910806EB53FA4F208180910706909141
:1019B0000806019660E470E00E94980E9093080675
:1019C000809307062093D600FF91EF91BF91AF91CE
:1019D0009F918F917F916F915F913F912F910F9088
:1019E0000BBE0F900FBE0F901F9018951F920F9275
:1019F0000FB60F920BB60F9211242F933F935F9364
:101A00006F937F938F939F93AF93BF93EF93FF93C6
:101A100020918D0630918E0680918F0690919006D0
:101A20002817390731F4809131018F7D809331017E
:101A300016C0E0918F06F0919006E35BF94F20818C
:101A400080918F0690919006019660E470E00E946C
:101A5000980E9093900680938F0620933601FF9105
:101A6000EF91BF91AF919F918F917F916F915F9116
:101A70003F912F910F900BBE0F900FBE0F901F90B4
:101A80001895DF92EF92FF920F931F93CF93DF93FE
:101A9000EC017A018B01DD24D394403081EE5807AC
:101AA00080E0680780E0780749F4DD24EC89FD894F
:101AB000108260E874E88EE190E00FC0EC89FD8947
:101AC00081E090E00E8C02C0880F991F0A94E2F723
:101AD000808360E079E08DE390E0A80197010E94A7
:101AE000AB0E2150304040405040569547953795B9
:101AF000279580E12030380710F0DD20B1F6E88925
:101B0000F9893083EA89FB892083EE89FF89408146
:101B100081E090E09C010A8C02C0220F331F0A94DE
:101B2000E2F7422B4083EE89FF8940819C010B8CB8
:101B300002C0220F331F0A94E2F7422B4083EE8942
:101B4000FF8940819C010C8C02C0220F331F0A9434
:101B5000E2F7422B4083EE89FF8920810D8C02C081
:101B6000880F991F0A94E2F7809582238083DF9182
:101B7000CF911F910F91FF90EF90DF9008951F93E9
:101B8000CF93DF93109294061092930688EE93E021
:101B9000A0E0B0E08093950690939606A0939706F8
:101BA000B0939806E3E9F6E021EE32E03293229317
:101BB00041E754E05587448745EB54E05787468713
:101BC00045EC50E0518B408B44EC50E0538B428B02
:101BD00040EC50E0558B448B41EC50E0578B468BEA
:101BE00046EC50E0518F408F14E0128F73E0738FFA
:101BF00067E0648F55E0558F41E0468F1092B30641
:101C00001092B2068093B4069093B506A093B606E0
:101C1000B093B706E2EBF6E032932293C9EFD4E03B
:101C2000D587C487CDE3D5E0D787C687CDECD0E094
:101C3000D18BC08BCCECD0E0D38BC28BC8ECD0E086
:101C4000D58BC48BC9ECD0E0D78BC68BCEECD0E063
:101C5000D18FC08F128F738F648F558F468F1092E4
:101C6000D2061092D1068093D3069093D406A09307
:101C7000D506B093D606E1EDF6E032932293C1E8A3
:101C8000D5E0D587C487C5ECD5E0D787C687C5ED35
:101C9000D0E0D18BC08BC4EDD0E0D38BC28BC0ED34
:101CA000D0E0D58BC48BC1EDD0E0D78BC68BC6ED11
:101CB000D0E0D18FC08F128F738F648F558F468F76
:101CC0001092F1061092F0068093F2069093F306BC
:101CD000A093F406B093F506E0EFF6E0329322937A
:101CE00089E096E0958784878DE496E097878687DC
:101CF00085E391E0918B808B84E391E0938B828BE1
:101D000080E391E0958B848B81E391E0978B868BC8
:101D100086E391E0918F808F128F738F648F558F40
:101D2000468FDF91CF911F9108950E947F0F0895F4
:101D300097FB092E07260AD077FD04D02ED006D0B7
:101D400000201AF4709561957F4F0895F6F79095ED
:101D500081959F4F0895A1E21A2EAA1BBB1BFD017E
:101D60000DC0AA1FBB1FEE1FFF1FA217B307E4077A
:101D7000F50720F0A21BB30BE40BF50B661F771FD2
:101D8000881F991F1A9469F76095709580959095B2
:101D90009B01AC01BD01CF010895AA1BBB1B51E102
:101DA00007C0AA1FBB1FA617B70710F0A61BB70BCB
:101DB000881F991F5A95A9F780959095BC01CD0170
:101DC00008950790F691E02D1994CF93DF93823018
:101DD000910510F482E090E0E0910F07F091100778
:101DE00040E050E020E030E026C06081718168175B
:101DF0007907E0F06817790781F4828193812115D2
:101E0000310531F0D90113969C938E9312972BC014
:101E10009093100780930F0726C04115510519F0C4
:101E20006417750718F4AB01E901DF019F017281A6
:101E30006381E72FF62F3097C1F64115510501F167
:101E4000481B590B4430510580F412968D919C919A
:101E50001397209719F09B838A8304C090931007EF
:101E600080930F07FD01329646C0FD01E40FF51F78
:101E7000819391934250504011965C934E933BC096
:101E800020910D0730910E072115310541F4209165
:101E9000C9023091CA0230930E0720930D0720919A
:101EA000CB023091CC022115310541F42DB73EB75C
:101EB0004091C7025091C802241B350BE0910D07D9
:101EC000F0910E07E217F307A0F42E1B3F0B281723
:101ED000390778F0AC014E5F5F4F2417350748F0A3
:101EE0004E0F5F1F50930E0740930D078193919300
:101EF00002C0E0E0F0E0CF01DF91CF910895CF93F1
:101F0000DF93009709F491C0FC013297138212828B
:101F100060910F07709110076115710581F42081A0
:101F20003181280F391F80910D0790910E0782177C
:101F3000930799F5F0930E07E0930D0776C0DB0148
:101F400080E090E002C0CD01D901AE17BF0748F490
:101F500012962D913C91139721153105A1F7CD01D2
:101F600021C0B383A283EF01499159919E01240FAF
:101F7000351FA217B30779F42D913C911197240FC7
:101F8000351F2E5F3F4F3183208312962D913C9158
:101F9000139733832283009729F4F0931007E0937B
:101FA0000F0743C0DC011396FC93EE9312974D91FB
:101FB0005D91A40FB51FEA17FB0769F420813181F9
:101FC000240F351F2E5F3F4FEC0139832883228178
:101FD00033813B832A83E0E0F0E002C0FB01BC01D7
:101FE000DB0112968D919C9113970097B9F79B0195
:101FF0002E5F3F4F8D919C911197820F931F4091BF
:102000000D0750910E074817590779F4309729F4B6
:102010001092100710920F0702C0138212822250F2
:10202000304030930E0720930D07DF91CF91089534
:1020300012E0CAE0D2E000E006C022970109FE01EA
:102040000BBF0E94E10ECC30D10780E00807A9F752
:04205000F894FFCF32
:1020540051554555453A20696E73756666696369DD
:10206400656E74206D656D6F727920746F20637274
:10207400656174652061206E6577206E6F64652EDE
:102084000051554555453A2063616E277420706FA1
:1020940070206974656D2066726F6D207175657549
:1020A400653A20717565756520697320656D707476
:1020B400792E002047455420002053455420002009
:1020C4005345545550200020616C6C200020504929
:1020D4004E472000205245534554200020494E4984
:1020E4005420002056455253494F4E00204241444B
:1020F4002056455253494F4E200020474F4F44200D
:1021040056455253494F4E200020656C73653F205D
:1021140000204F4646200020001107000000000068
:102124000055052305C104CA04DE04EE04000000C2
:0E21340000ED0AA909880AB70A9B0AD90A0019
:00000001FF
